8=FIX.4.2|9=231|35=D|34=168|49=DANIAL|52=20240412-17:49:42.533|56=TEST|57=CLOSE|115=QNTX|1=31206108|11=DA20333963458|38=100|40=1|54=1|55=IBM|59=0|60=20240221-15:11:35.260|100=ALGO|167=CS|10=036|

8=FIX.4.2|9=231|35=D|34=168|49=DANIAL|52=20240412-17:49:42.533|56=TEST|57=DARK|115=QNTX|1=31206108|11=DA031211243963458|38=100|40=1|54=1|55=IBM|59=0|60=20240221-15:11:35.260|100=ALGO|167=CS|10=036|

8=FIX.4.2|9=231|35=D|34=168|49=DANIAL|52=20240412-17:49:42.533|56=TEST|57=DARK|115=QNTX|1=31206108|11=DA031211243963458|38=100|40=1|54=1|55=IBM|59=0|60=20240221-15:11:35.260|100=ALGO|167=CS|10=036|

8=FIX.4.2|9=231|35=D|34=168|49=DANIAL|52=20240412-17:49:42.533|56=TEST|57=DARK|115=QNTX|1=31206108|11=DA031211243963458|38=100|40=1|54=1|55=IBM|59=0|60=20240221-15:11:35.260|100=ALGO|167=CS|10=036|

8=FIX.4.2|9=231|35=D|34=168|49=DANIAL|52=20240412-17:49:42.533|56=TEST|57=DARK|115=QNTX|1=31206108|11=DA031211243963458|38=100|40=1|54=1|55=IBM|59=0|60=20240221-15:11:35.260|100=ALGO|167=CS|10=036|

8=FIX.4.2|9=231|35=D|34=168|49=DANIAL|52=20240412-17:49:42.533|56=TEST|57=DARKAGG|115=QNTX|1=31206108|11=DA031211243963458|38=100|40=1|54=1|55=IBM|59=0|60=20240221-15:11:35.260|100=ALGO|167=CS|10=036|

8=FIX.4.2|9=231|35=D|34=168|49=DANIAL|52=20240412-17:49:42.533|56=TEST|57=DARKAGG|115=QNTX|1=31206108|11=DA031211243963458|38=100|40=1|54=1|55=IBM|59=0|60=20240221-15:11:35.260|100=ALGO|167=CS|10=036|

8=FIX.4.2|9=231|35=D|34=168|49=DANIAL|52=20240412-17:49:42.533|56=TEST|57=DARKAGG|115=QNTX|1=31206108|11=DA031211243963458|38=100|40=1|54=1|55=IBM|59=0|60=20240221-15:11:35.260|100=ALGO|167=CS|10=036|

8=FIX.4.2|9=231|35=D|34=168|49=DANIAL|52=20240412-17:49:42.533|56=TEST|57=DARKAGG|115=QNTX|1=31206108|11=DA031211243963458|38=100|40=1|54=1|55=IBM|59=0|60=20240221-15:11:35.260|100=ALGO|167=CS|10=036|

8=FIX.4.2|9=231|35=D|34=168|49=DANIAL|52=20240412-17:49:42.533|56=TEST|57=DARKMID|115=QNTX|1=31206108|11=DA031211243963458|38=100|40=1|54=1|55=IBM|59=0|60=20240221-15:11:35.260|100=ALGO|167=CS|10=036|

8=FIX.4.2|9=231|35=D|34=168|49=DANIAL|52=20240412-17:49:42.533|56=TEST|57=DARKMID|115=QNTX|1=31206108|11=DA031211243963458|38=100|40=1|54=1|55=IBM|59=0|60=20240221-15:11:35.260|100=ALGO|167=CS|10=036|

8=FIX.4.2|9=231|35=D|34=168|49=DANIAL|52=20240412-17:49:42.533|56=TEST|57=DARKMID|115=QNTX|1=31206108|11=DA031211243963458|38=100|40=1|54=1|55=IBM|59=0|60=20240221-15:11:35.260|100=ALGO|167=CS|10=036|

8=FIX.4.2|9=231|35=D|34=168|49=DANIAL|52=20240412-17:49:42.533|56=TEST|57=DARKMID|115=QNTX|1=31206108|11=DA031211243963458|38=100|40=1|54=1|55=IBM|59=0|60=20240221-15:11:35.260|100=ALGO|167=CS|10=036|

8=FIX.4.2|9=231|35=D|34=168|49=DANIAL|52=20240412-17:49:42.533|56=TEST|57=IS|115=QNTX|1=31206108|11=DA031211243963458|38=100|40=1|54=1|55=IBM|59=0|60=20240221-15:11:35.260|100=ALGO|167=CS|10=036|

8=FIX.4.2|9=231|35=D|34=168|49=DANIAL|52=20240412-17:49:42.533|56=TEST|57=IS|115=QNTX|1=31206108|11=DA031211243963458|38=100|40=1|54=1|55=IBM|59=0|60=20240221-15:11:35.260|100=ALGO|167=CS|10=036|

8=FIX.4.2|9=231|35=D|34=168|49=DANIAL|52=20240412-17:49:42.533|56=TEST|57=IS|115=QNTX|1=31206108|11=DA031211243963458|38=100|40=1|54=1|55=IBM|59=0|60=20240221-15:11:35.260|100=ALGO|167=CS|10=036|

8=FIX.4.2|9=231|35=D|34=168|49=DANIAL|52=20240412-17:49:42.533|56=TEST|57=IS|115=QNTX|1=31206108|11=DA031211243963458|38=100|40=1|54=1|55=IBM|59=0|60=20240221-15:11:35.260|100=ALGO|167=CS|10=036|

8=FIX.4.2|9=231|35=D|34=168|49=DANIAL|52=20240412-17:49:42.533|56=TEST|57=IS|115=QNTX|1=31206108|11=DA031211243963458|38=100|40=1|54=1|55=IBM|59=0|60=20240221-15:11:35.260|100=ALGO|167=CS|10=036|

8=FIX.4.2|9=231|35=D|34=168|49=DANIAL|52=20240412-17:49:42.533|56=TEST|57=IS|115=QNTX|1=31206108|11=DA031211243963458|38=100|40=1|54=1|55=IBM|59=0|60=20240221-15:11:35.260|100=ALGO|167=CS|10=036|

8=FIX.4.2|9=231|35=D|34=168|49=DANIAL|52=20240412-17:49:42.533|56=TEST|57=IS|115=QNTX|1=31206108|11=DA031211243963458|38=100|40=1|54=1|55=IBM|59=0|60=20240221-15:11:35.260|100=ALGO|167=CS|10=036|

8=FIX.4.2|9=231|35=D|34=168|49=DANIAL|52=20240412-17:49:42.533|56=TEST|57=IS|115=QNTX|1=31206108|11=DA031211243963458|38=100|40=1|54=1|55=IBM|59=0|60=20240221-15:11:35.260|100=ALGO|167=CS|10=036|

8=FIX.4.2|9=231|35=D|34=168|49=DANIAL|52=20240412-17:49:42.533|56=TEST|57=IS|115=QNTX|1=31206108|11=DA031211243963458|38=100|40=1|54=1|55=IBM|59=0|60=20240221-15:11:35.260|100=ALGO|167=CS|10=036|

8=FIX.4.2|9=231|35=D|34=168|49=DANIAL|52=20240412-17:49:42.533|56=TEST|57=IS|115=QNTX|1=31206108|11=DA031211243963458|38=100|40=1|54=1|55=IBM|59=0|60=20240221-15:11:35.260|100=ALGO|167=CS|10=036|

8=FIX.4.2|9=231|35=D|34=168|49=DANIAL|52=20240412-17:49:42.533|56=TEST|57=IS|115=QNTX|1=31206108|11=DA031211243963458|38=100|40=1|54=1|55=IBM|59=0|60=20240221-15:11:35.260|100=ALGO|167=CS|10=036|

8=FIX.4.2|9=231|35=D|34=168|49=DANIAL|52=20240412-17:49:42.533|56=TEST|57=IS|115=QNTX|1=31206108|11=DA031211243963458|38=100|40=1|54=1|55=IBM|59=0|60=20240221-15:11:35.260|100=ALGO|167=CS|10=036|

8=FIX.4.2|9=231|35=D|34=168|49=DANIAL|52=20240412-17:49:42.533|56=TEST|57=IS|115=QNTX|1=31206108|11=DA031211243963458|38=100|40=1|54=1|55=IBM|59=0|60=20240221-15:11:35.260|100=ALGO|167=CS|10=036|

8=FIX.4.2|9=231|35=D|34=168|49=DANIAL|52=20240412-17:49:42.533|56=TEST|57=IS|115=QNTX|1=31206108|11=DA031211243963458|38=100|40=1|54=1|55=IBM|59=0|60=20240221-15:11:35.260|100=ALGO|167=CS|10=036|

8=FIX.4.2|9=231|35=D|34=168|49=DANIAL|52=20240412-17:49:42.533|56=TEST|57=IS|115=QNTX|1=31206108|11=DA031211243963458|38=100|40=1|54=1|55=IBM|59=0|60=20240221-15:11:35.260|100=ALGO|167=CS|10=036|

8=FIX.4.2|9=231|35=D|34=168|49=DANIAL|52=20240412-17:49:42.533|56=TEST|57=IS|115=QNTX|1=31206108|11=DA031211243963458|38=100|40=1|54=1|55=IBM|59=0|60=20240221-15:11:35.260|100=ALGO|167=CS|10=036|

8=FIX.4.2|9=231|35=D|34=168|49=DANIAL|52=20240412-17:49:42.533|56=TEST|57=IS|115=QNTX|1=31206108|11=DA031211243963458|38=100|40=1|54=1|55=IBM|59=0|60=20240221-15:11:35.260|100=ALGO|167=CS|10=036|

