20230609-13:01:31.453 | IN  | 8=FIX.4.2 | 9=00213 | 35=D | 49=T3UAT | 56=VCTU44 | 115=TEST | 34=541 | 57=TESTEQT | 52=20230609-17:01:31.414 | 1=TESTACCOUNT | 11=T3UATT2IRV2HSV4M1000 | 100=VELO | 15=USD | 21=1 | 47=A | 167=CS | 38=100 | 55=IBM | 54=1 | 40=2 | 59=0 | 44=150.0000 | 60=20230609-17:01:31.414 | 10=132 | 

20230609-13:01:48.017 | OUT | 8=FIX.4.2 | 9=281 | 35=8 | 34=530 | 49=VCTU44 | 50=TESTEQT | 52=20230609-17:01:48.029 | 56=T3UAT | 57=TESTEQT | 128=TEST | 1=TESTACCOUNT | 6=0 | 11=T3UATT2IRV2HSV4M1000 | 14=0 | 17=30002 | 20=0 | 31=0 | 32=0 | 37=3 | 38=100 | 39=0 | 40=2 | 44=150.000000 | 47=A | 54=1 | 55=IBM | 59=0 | 60=20230609-17:01:47.740 | 63=0 | 75=20230609 | 100=VELO | 150=0 | 151=100 | 10=072 | 

20230609-13:02:00.427 | OUT | 8=FIX.4.2 | 9=300 | 35=8 | 34=531 | 49=VCTU44 | 50=TESTEQT | 52=20230609-17:02:00.439 | 56=T3UAT | 57=TESTEQT | 128=TEST | 1=TESTACCOUNT | 6=120.000000 | 11=T3UATT2IRV2HSV4M1000 | 14=10 | 17=30003 | 20=0 | 31=120.000000 | 32=10 | 37=3 | 38=100 | 39=1 | 40=2 | 44=150.000000 | 47=A | 54=1 | 55=IBM | 59=0 | 60=20230609-17:02:00.166 | 63=0 | 75=20230609 | 100=VELO | 150=1 | 151=90 | 10=210 | 

20230609-13:02:07.530 | OUT | 8=FIX.4.2 | 9=300 | 35=8 | 34=532 | 49=VCTU44 | 50=TESTEQT | 52=20230609-17:02:07.530 | 56=T3UAT | 57=TESTEQT | 128=TEST | 1=TESTACCOUNT | 6=126.666667 | 11=T3UATT2IRV2HSV4M1000 | 14=30 | 17=30004 | 20=0 | 31=130.000000 | 32=20 | 37=3 | 38=100 | 39=1 | 40=2 | 44=150.000000 | 47=A | 54=1 | 55=IBM | 59=0 | 60=20230609-17:02:07.248 | 63=0 | 75=20230609 | 100=VELO | 150=1 | 151=70 | 10=008 | 

20230609-13:02:21.915 | OUT | 8=FIX.4.2 | 9=300 | 35=8 | 34=533 | 49=VCTU44 | 50=TESTEQT | 52=20230609-17:02:21.918 | 56=T3UAT | 57=TESTEQT | 128=TEST | 1=TESTACCOUNT | 6=132.272727 | 11=T3UATT2IRV2HSV4M1000 | 14=55 | 17=30005 | 20=0 | 31=139.000000 | 32=25 | 37=3 | 38=100 | 39=1 | 40=2 | 44=150.000000 | 47=A | 54=1 | 55=IBM | 59=0 | 60=20230609-17:02:21.631 | 63=0 | 75=20230609 | 100=VELO | 150=1 | 151=45 | 10=018 | 

20230609-13:06:09.372 | OUT | 8=FIX.4.2 | 9=300 | 35=8 | 34=541 | 49=VCTU44 | 50=TESTEQT | 52=20230609-17:06:09.376 | 56=T3UAT | 57=TESTEQT | 128=TEST | 1=TESTACCOUNT | 6=126.750000 | 11=T3UATT2IRV2HSV4M1000 | 14=100 | 17=30006 | 20=0 | 31=120.000000 | 32=45 | 37=3 | 38=100 | 39=2 | 40=2 | 44=150.000000 | 47=A | 54=1 | 55=IBM | 59=0 | 60=20230609-17:06:09.174 | 63=0 | 75=20230609 | 100=VELO | 150=2 | 151=0 | 10=002 | 

20230609-13:08:09.274 | IN  | 8=FIX.4.2 | 9=00213 | 35=D | 49=T3UAT | 56=VCTU44 | 115=TEST | 34=555 | 57=TESTEQT | 52=20230609-17:08:09.232 | 1=TESTACCOUNT | 11=T3UATU2IRV2HSV4M1000 | 100=VELO | 15=USD | 21=1 | 47=A | 167=CS | 38=100 | 55=IBM | 54=2 | 40=2 | 59=0 | 44=150.0000 | 60=20230609-17:08:09.232 | 10=159 | 

20230609-13:08:30.609 | OUT | 8=FIX.4.2 | 9=281 | 35=8 | 34=546 | 49=VCTU44 | 50=TESTEQT | 52=20230609-17:08:30.617 | 56=T3UAT | 57=TESTEQT | 128=TEST | 1=TESTACCOUNT | 6=0 | 11=T3UATU2IRV2HSV4M1000 | 14=0 | 17=10002 | 20=0 | 31=0 | 32=0 | 37=1 | 38=100 | 39=0 | 40=2 | 44=150.000000 | 47=A | 54=2 | 55=IBM | 59=0 | 60=20230609-17:08:30.321 | 63=0 | 75=20230609 | 100=VELO | 150=0 | 151=100 | 10=072 | 

20230609-13:08:40.023 | OUT | 8=FIX.4.2 | 9=300 | 35=8 | 34=547 | 49=VCTU44 | 50=TESTEQT | 52=20230609-17:08:40.027 | 56=T3UAT | 57=TESTEQT | 128=TEST | 1=TESTACCOUNT | 6=110.000000 | 11=T3UATU2IRV2HSV4M1000 | 14=10 | 17=10003 | 20=0 | 31=110.000000 | 32=10 | 37=1 | 38=100 | 39=1 | 40=2 | 44=150.000000 | 47=A | 54=2 | 55=IBM | 59=0 | 60=20230609-17:08:39.767 | 63=0 | 75=20230609 | 100=VELO | 150=1 | 151=90 | 10=241 | 

20230609-13:08:46.622 | OUT | 8=FIX.4.2 | 9=300 | 35=8 | 34=548 | 49=VCTU44 | 50=TESTEQT | 52=20230609-17:08:46.622 | 56=T3UAT | 57=TESTEQT | 128=TEST | 1=TESTACCOUNT | 6=130.000000 | 11=T3UATU2IRV2HSV4M1000 | 14=30 | 17=10004 | 20=0 | 31=140.000000 | 32=20 | 37=1 | 38=100 | 39=1 | 40=2 | 44=150.000000 | 47=A | 54=2 | 55=IBM | 59=0 | 60=20230609-17:08:46.366 | 63=0 | 75=20230609 | 100=VELO | 150=1 | 151=70 | 10=249 | 

20230609-13:08:59.027 | OUT | 8=FIX.4.2 | 9=300 | 35=8 | 34=549 | 49=VCTU44 | 50=TESTEQT | 52=20230609-17:08:59.027 | 56=T3UAT | 57=TESTEQT | 128=TEST | 1=TESTACCOUNT | 6=123.000000 | 11=T3UATU2IRV2HSV4M1000 | 14=100 | 17=10005 | 20=0 | 31=120.000000 | 32=70 | 37=1 | 38=100 | 39=2 | 40=2 | 44=150.000000 | 47=A | 54=2 | 55=IBM | 59=0 | 60=20230609-17:08:58.786 | 63=0 | 75=20230609 | 100=VELO | 150=2 | 151=0 | 10=005 | 

20230609-13:11:30.028 | IN  | 8=FIX.4.2 | 9=00226 | 35=D | 49=T3UAT | 56=VCTU44 | 115=TEST | 34=563 | 57=TESTEQT | 52=20230609-17:11:30.005 | 1=TESTACCOUNT | 11=T3UATV2IRV2HSV4M1000 | 100=VELO | 15=USD | 21=1 | 47=A | 167=CS | 38=100 | 55=C | 54=5 | 114=N | 5700=VELO | 40=2 | 59=0 | 44=45.0000 | 60=20230609-17:11:30.005 | 10=042 | 

20230609-13:11:51.347 | OUT | 8=FIX.4.2 | 9=278 | 35=8 | 34=555 | 49=VCTU44 | 50=TESTEQT | 52=20230609-17:11:51.349 | 56=T3UAT | 57=TESTEQT | 128=TEST | 1=TESTACCOUNT | 6=0 | 11=T3UATV2IRV2HSV4M1000 | 14=0 | 17=30002 | 20=0 | 31=0 | 32=0 | 37=3 | 38=100 | 39=0 | 40=2 | 44=45.000000 | 47=A | 54=5 | 55=C | 59=0 | 60=20230609-17:11:51.147 | 63=0 | 75=20230609 | 100=VELO | 150=0 | 151=100 | 10=150 | 

20230609-13:12:21.659 | OUT | 8=FIX.4.2 | 9=295 | 35=8 | 34=556 | 49=VCTU44 | 50=TESTEQT | 52=20230609-17:12:21.660 | 56=T3UAT | 57=TESTEQT | 128=TEST | 1=TESTACCOUNT | 6=40.000000 | 11=T3UATV2IRV2HSV4M1000 | 14=10 | 17=30003 | 20=0 | 31=40.000000 | 32=10 | 37=3 | 38=100 | 39=1 | 40=2 | 44=45.000000 | 47=A | 54=5 | 55=C | 59=0 | 60=20230609-17:12:21.430 | 63=0 | 75=20230609 | 100=VELO | 150=1 | 151=90 | 10=202 | 

20230609-13:12:30.761 | OUT | 8=FIX.4.2 | 9=295 | 35=8 | 34=557 | 49=VCTU44 | 50=TESTEQT | 52=20230609-17:12:30.761 | 56=T3UAT | 57=TESTEQT | 128=TEST | 1=TESTACCOUNT | 6=37.500000 | 11=T3UATV2IRV2HSV4M1000 | 14=20 | 17=30004 | 20=0 | 31=35.000000 | 32=10 | 37=3 | 38=100 | 39=1 | 40=2 | 44=45.000000 | 47=A | 54=5 | 55=C | 59=0 | 60=20230609-17:12:30.564 | 63=0 | 75=20230609 | 100=VELO | 150=1 | 151=80 | 10=229 | 

20230609-13:13:11.834 | IN  | 8=FIX.4.2 | 9=00166 | 35=F | 49=T3UAT | 56=VCTU44 | 115=TEST | 34=567 | 57=TESTEQT | 52=20230609-17:13:11.778 | 11=T3UATW2IRV2HSV4M1000 | 41=T3UATV2IRV2HSV4M1000 | 54=5 | 38=100 | 55=C | 60=20230609-17:13:11.778 | 10=188 | 

20230609-13:13:30.078 | OUT | 8=FIX.4.2 | 9=154 | 35=9 | 34=559 | 49=VCTU44 | 50=TESTEQT | 52=20230609-17:13:30.090 | 56=T3UAT | 128=TEST | 11=T3UATW2IRV2HSV4M1000 | 37=3 | 39=1 | 41=T3UATV2IRV2HSV4M1000 | 58=TLTC | 102=0 | 434=1 | 10=003 | 

20230609-13:15:47.014 | OUT | 8=FIX.4.2 | 9=297 | 35=8 | 34=564 | 49=VCTU44 | 50=TESTEQT | 52=20230609-17:15:47.022 | 56=T3UAT | 57=TESTEQT | 128=TEST | 1=TESTACCOUNT | 6=103.500000 | 11=T3UATV2IRV2HSV4M1000 | 14=100 | 17=30008 | 20=0 | 31=120.000000 | 32=80 | 37=3 | 38=100 | 39=2 | 40=2 | 44=45.000000 | 47=A | 54=5 | 55=C | 59=0 | 60=20230609-17:15:46.863 | 63=0 | 75=20230609 | 100=VELO | 150=2 | 151=0 | 10=075 | 

20230609-13:16:28.060 | IN  | 8=FIX.4.2 | 9=00213 | 35=D | 49=T3UAT | 56=VCTU44 | 115=TEST | 34=575 | 57=TESTEQT | 52=20230609-17:16:28.033 | 1=TESTACCOUNT | 11=T3UATX2IRV2HSV4M1000 | 100=VELO | 15=USD | 21=1 | 47=A | 167=CS | 38=100 | 55=IBM | 54=1 | 40=2 | 59=0 | 44=150.0000 | 60=20230609-17:16:28.033 | 10=161 | 

20230609-13:16:40.245 | OUT | 8=FIX.4.2 | 9=281 | 35=8 | 34=566 | 49=VCTU44 | 50=TESTEQT | 52=20230609-17:16:40.259 | 56=T3UAT | 57=TESTEQT | 128=TEST | 1=TESTACCOUNT | 6=0 | 11=T3UATX2IRV2HSV4M1000 | 14=0 | 17=50002 | 20=0 | 31=0 | 32=0 | 37=5 | 38=100 | 39=0 | 40=2 | 44=150.000000 | 47=A | 54=1 | 55=IBM | 59=0 | 60=20230609-17:16:40.080 | 63=0 | 75=20230609 | 100=VELO | 150=0 | 151=100 | 10=088 | 

20230609-13:16:45.895 | IN  | 8=FIX.4.2 | 9=00168 | 35=F | 49=T3UAT | 56=VCTU44 | 115=TEST | 34=576 | 57=TESTEQT | 52=20230609-17:16:45.865 | 11=T3UATY2IRV2HSV4M1000 | 41=T3UATX2IRV2HSV4M1000 | 54=1 | 38=100 | 55=IBM | 60=20230609-17:16:45.865 | 10=097 | 

20230609-13:16:52.827 | OUT | 8=FIX.4.2 | 9=304 | 35=8 | 34=567 | 49=VCTU44 | 50=TESTEQT | 52=20230609-17:16:52.828 | 56=T3UAT | 57=TESTEQT | 128=TEST | 1=TESTACCOUNT | 6=0 | 11=T3UATY2IRV2HSV4M1000 | 14=0 | 17=50005 | 20=0 | 31=0 | 32=0 | 37=5 | 38=100 | 39=4 | 40=2 | 41=T3UATX2IRV2HSV4M1000 | 44=150.000000 | 47=A | 54=1 | 55=IBM | 58=UR OUT | 59=0 | 60=20230609-17:16:52.472 | 63=0 | 75=20230609 | 150=4 | 151=0 | 10=102 | 

20230609-13:17:35.462 | IN  | 8=FIX.4.2 | 9=00213 | 35=D | 49=T3UAT | 56=VCTU44 | 115=TEST | 34=579 | 57=TESTEQT | 52=20230609-17:17:35.429 | 1=TESTACCOUNT | 11=T3UATZ2IRV2HSV4M1000 | 100=VELO | 15=USD | 21=1 | 47=A | 167=CS | 38=100 | 55=IBM | 54=1 | 40=2 | 59=3 | 44=150.0000 | 60=20230609-17:17:35.429 | 10=186 | 

20230609-13:18:25.483 | IN  | 8=FIX.4.2 | 9=00201 | 35=D | 49=T3UAT | 56=VCTU44 | 115=TEST | 34=582 | 57=TESTEQT | 52=20230609-17:18:25.445 | 1=TESTACCOUNT | 11=T3UAT03IRV2HSV4M1000 | 100=VELO | 15=USD | 21=1 | 47=A | 167=CS | 38=100 | 55=IBM | 54=1 | 40=1 | 59=0 | 60=20230609-17:18:25.445 | 10=086 | 

20230609-13:19:06.211 | IN  | 8=FIX.4.2 | 9=00201 | 35=D | 49=T3UAT | 56=VCTU44 | 115=TEST | 34=584 | 57=TESTEQT | 52=20230609-17:19:06.172 | 1=TESTACCOUNT | 11=T3UAT13IRV2HSV4M1000 | 100=VELO | 15=USD | 21=1 | 47=A | 167=CS | 38=100 | 55=IBM | 54=1 | 40=1 | 59=2 | 60=20230609-17:19:06.172 | 10=085 | 

20230609-13:20:07.628 | IN  | 8=FIX.4.2 | 9=00201 | 35=D | 49=T3UAT | 56=VCTU44 | 115=TEST | 34=587 | 57=TESTEQT | 52=20230609-17:20:07.588 | 1=TESTACCOUNT | 11=T3UAT23IRV2HSV4M1000 | 100=VELO | 15=USD | 21=1 | 47=A | 167=CS | 38=100 | 55=IBM | 54=1 | 40=5 | 59=0 | 60=20230609-17:20:07.588 | 10=099 | 

20230609-13:21:31.773 | OUT | 8=FIX.4.2 | 9=269 | 35=8 | 34=577 | 49=VCTU44 | 50=TESTEQT | 52=20230609-17:21:31.776 | 56=T3UAT | 57=TESTEQT | 128=TEST | 1=TESTACCOUNT | 6=0 | 11=T3UAT23IRV2HSV4M1000 | 14=0 | 17=130002 | 20=0 | 31=0 | 32=0 | 37=13 | 38=100 | 39=8 | 40=5 | 47=A | 54=1 | 55=IBM | 59=0 | 60=20230609-17:21:31.615 | 63=0 | 75=20230609 | 100=VELO | 150=8 | 151=100 | 10=034 | 

20230609-13:21:33.452 | OUT | 8=FIX.4.2 | 9=281 | 35=8 | 34=578 | 49=VCTU44 | 50=TESTEQT | 52=20230609-17:21:33.459 | 56=T3UAT | 57=TESTEQT | 128=TEST | 1=TESTACCOUNT | 6=0 | 11=T3UATZ2IRV2HSV4M1000 | 14=0 | 17=70002 | 20=0 | 31=0 | 32=0 | 37=7 | 38=100 | 39=0 | 40=2 | 44=150.000000 | 47=A | 54=1 | 55=IBM | 59=3 | 60=20230609-17:21:33.294 | 63=0 | 75=20230609 | 100=VELO | 150=0 | 151=100 | 10=105 | 

20230609-13:21:34.464 | OUT | 8=FIX.4.2 | 9=267 | 35=8 | 34=579 | 49=VCTU44 | 50=TESTEQT | 52=20230609-17:21:34.465 | 56=T3UAT | 57=TESTEQT | 128=TEST | 1=TESTACCOUNT | 6=0 | 11=T3UAT03IRV2HSV4M1000 | 14=0 | 17=90002 | 20=0 | 31=0 | 32=0 | 37=9 | 38=100 | 39=0 | 40=1 | 47=A | 54=1 | 55=IBM | 59=0 | 60=20230609-17:21:34.292 | 63=0 | 75=20230609 | 100=VELO | 150=0 | 151=100 | 10=184 | 

20230609-13:21:35.659 | OUT | 8=FIX.4.2 | 9=269 | 35=8 | 34=580 | 49=VCTU44 | 50=TESTEQT | 52=20230609-17:21:35.675 | 56=T3UAT | 57=TESTEQT | 128=TEST | 1=TESTACCOUNT | 6=0 | 11=T3UAT13IRV2HSV4M1000 | 14=0 | 17=110002 | 20=0 | 31=0 | 32=0 | 37=11 | 38=100 | 39=0 | 40=1 | 47=A | 54=1 | 55=IBM | 59=2 | 60=20230609-17:21:35.496 | 63=0 | 75=20230609 | 100=VELO | 150=0 | 151=100 | 10=018 | 

20230609-13:21:45.314 | OUT | 8=FIX.4.2 | 9=300 | 35=8 | 34=581 | 49=VCTU44 | 50=TESTEQT | 52=20230609-17:21:45.326 | 56=T3UAT | 57=TESTEQT | 128=TEST | 1=TESTACCOUNT | 6=140.000000 | 11=T3UATZ2IRV2HSV4M1000 | 14=10 | 17=70003 | 20=0 | 31=140.000000 | 32=10 | 37=7 | 38=100 | 39=1 | 40=2 | 44=150.000000 | 47=A | 54=1 | 55=IBM | 59=3 | 60=20230609-17:21:45.045 | 63=0 | 75=20230609 | 100=VELO | 150=1 | 151=90 | 10=247 | 

20230609-13:21:50.028 | OUT | 8=FIX.4.2 | 9=300 | 35=8 | 34=582 | 49=VCTU44 | 50=TESTEQT | 52=20230609-17:21:50.028 | 56=T3UAT | 57=TESTEQT | 128=TEST | 1=TESTACCOUNT | 6=133.333333 | 11=T3UATZ2IRV2HSV4M1000 | 14=30 | 17=70004 | 20=0 | 31=130.000000 | 32=20 | 37=7 | 38=100 | 39=1 | 40=2 | 44=150.000000 | 47=A | 54=1 | 55=IBM | 59=3 | 60=20230609-17:21:49.761 | 63=0 | 75=20230609 | 100=VELO | 150=1 | 151=70 | 10=017 | 

20230609-13:21:54.834 | OUT | 8=FIX.4.2 | 9=286 | 35=8 | 34=583 | 49=VCTU44 | 50=TESTEQT | 52=20230609-17:21:54.815 | 56=T3UAT | 57=TESTEQT | 128=TEST | 1=TESTACCOUNT | 6=140.000000 | 11=T3UAT03IRV2HSV4M1000 | 14=10 | 17=90003 | 20=0 | 31=140.000000 | 32=10 | 37=9 | 38=100 | 39=1 | 40=1 | 47=A | 54=1 | 55=IBM | 59=0 | 60=20230609-17:21:54.600 | 63=0 | 75=20230609 | 100=VELO | 150=1 | 151=90 | 10=083 | 

20230609-13:21:59.023 | OUT | 8=FIX.4.2 | 9=286 | 35=8 | 34=584 | 49=VCTU44 | 50=TESTEQT | 52=20230609-17:21:59.026 | 56=T3UAT | 57=TESTEQT | 128=TEST | 1=TESTACCOUNT | 6=133.333333 | 11=T3UAT03IRV2HSV4M1000 | 14=30 | 17=90004 | 20=0 | 31=130.000000 | 32=20 | 37=9 | 38=100 | 39=1 | 40=1 | 47=A | 54=1 | 55=IBM | 59=0 | 60=20230609-17:21:58.818 | 63=0 | 75=20230609 | 100=VELO | 150=1 | 151=70 | 10=119 | 

20230609-13:22:03.438 | OUT | 8=FIX.4.2 | 9=288 | 35=8 | 34=585 | 49=VCTU44 | 50=TESTEQT | 52=20230609-17:22:03.418 | 56=T3UAT | 57=TESTEQT | 128=TEST | 1=TESTACCOUNT | 6=120.000000 | 11=T3UAT13IRV2HSV4M1000 | 14=10 | 17=110003 | 20=0 | 31=120.000000 | 32=10 | 37=11 | 38=100 | 39=1 | 40=1 | 47=A | 54=1 | 55=IBM | 59=2 | 60=20230609-17:22:03.149 | 63=0 | 75=20230609 | 100=VELO | 150=1 | 151=90 | 10=165 | 

20230609-13:22:09.770 | OUT | 8=FIX.4.2 | 9=288 | 35=8 | 34=586 | 49=VCTU44 | 50=TESTEQT | 52=20230609-17:22:09.770 | 56=T3UAT | 57=TESTEQT | 128=TEST | 1=TESTACCOUNT | 6=113.333333 | 11=T3UAT13IRV2HSV4M1000 | 14=30 | 17=110004 | 20=0 | 31=110.000000 | 32=20 | 37=11 | 38=100 | 39=1 | 40=1 | 47=A | 54=1 | 55=IBM | 59=2 | 60=20230609-17:22:09.480 | 63=0 | 75=20230609 | 100=VELO | 150=1 | 151=70 | 10=198 | 

20230609-13:22:26.340 | OUT | 8=FIX.4.2 | 9=300 | 35=8 | 34=587 | 49=VCTU44 | 50=TESTEQT | 52=20230609-17:22:26.340 | 56=T3UAT | 57=TESTEQT | 128=TEST | 1=TESTACCOUNT | 6=138.000000 | 11=T3UATZ2IRV2HSV4M1000 | 14=100 | 17=70005 | 20=0 | 31=140.000000 | 32=70 | 37=7 | 38=100 | 39=2 | 40=2 | 44=150.000000 | 47=A | 54=1 | 55=IBM | 59=3 | 60=20230609-17:22:26.098 | 63=0 | 75=20230609 | 100=VELO | 150=2 | 151=0 | 10=009 | 

20230609-13:22:35.538 | OUT | 8=FIX.4.2 | 9=286 | 35=8 | 34=588 | 49=VCTU44 | 50=TESTEQT | 52=20230609-17:22:35.538 | 56=T3UAT | 57=TESTEQT | 128=TEST | 1=TESTACCOUNT | 6=144.300000 | 11=T3UAT03IRV2HSV4M1000 | 14=100 | 17=90005 | 20=0 | 31=149.000000 | 32=70 | 37=9 | 38=100 | 39=2 | 40=1 | 47=A | 54=1 | 55=IBM | 59=0 | 60=20230609-17:22:35.264 | 63=0 | 75=20230609 | 100=VELO | 150=2 | 151=0 | 10=113 | 

20230609-13:22:42.661 | OUT | 8=FIX.4.2 | 9=288 | 35=8 | 34=589 | 49=VCTU44 | 50=TESTEQT | 52=20230609-17:22:42.662 | 56=T3UAT | 57=TESTEQT | 128=TEST | 1=TESTACCOUNT | 6=111.000000 | 11=T3UAT13IRV2HSV4M1000 | 14=100 | 17=110005 | 20=0 | 31=110.000000 | 32=70 | 37=11 | 38=100 | 39=2 | 40=1 | 47=A | 54=1 | 55=IBM | 59=2 | 60=20230609-17:22:42.186 | 63=0 | 75=20230609 | 100=VELO | 150=2 | 151=0 | 10=177 | 

20230609-13:23:36.612 | IN  | 8=FIX.4.2 | 9=00218 | 35=D | 49=T3UAT | 56=VCTU44 | 115=TEST | 34=595 | 57=TESTEQT | 52=20230609-17:23:36.574 | 1=TESTACCOUNT | 11=T3UAT33IRV2HSV4M1000 | 100=VELO | 15=USD | 21=1 | 47=A | 167=CS | 38=100 | 55=BRK | 65=A | 54=1 | 40=2 | 59=0 | 44=100.0000 | 60=20230609-17:23:36.574 | 10=126 | 

20230609-13:24:15.432 | OUT | 8=FIX.4.2 | 9=288 | 35=8 | 34=593 | 49=VCTU44 | 50=TESTEQT | 52=20230609-17:24:15.432 | 56=T3UAT | 57=TESTEQT | 128=TEST | 1=TESTACCOUNT | 6=0 | 11=T3UAT33IRV2HSV4M1000 | 14=0 | 17=150002 | 20=0 | 31=0 | 32=0 | 37=15 | 38=100 | 39=0 | 40=2 | 44=100.000000 | 47=A | 54=1 | 55=BRK | 59=0 | 60=20230609-17:24:15.241 | 63=0 | 65=A | 75=20230609 | 100=VELO | 150=0 | 151=100 | 10=131 | 

20230609-13:24:22.104 | OUT | 8=FIX.4.2 | 9=307 | 35=8 | 34=594 | 49=VCTU44 | 50=TESTEQT | 52=20230609-17:24:22.104 | 56=T3UAT | 57=TESTEQT | 128=TEST | 1=TESTACCOUNT | 6=110.000000 | 11=T3UAT33IRV2HSV4M1000 | 14=10 | 17=150003 | 20=0 | 31=110.000000 | 32=10 | 37=15 | 38=100 | 39=1 | 40=2 | 44=100.000000 | 47=A | 54=1 | 55=BRK | 59=0 | 60=20230609-17:24:21.866 | 63=0 | 65=A | 75=20230609 | 100=VELO | 150=1 | 151=90 | 10=029 | 

20230609-13:24:32.339 | IN  | 8=FIX.4.2 | 9=00173 | 35=F | 49=T3UAT | 56=VCTU44 | 115=TEST | 34=598 | 57=TESTEQT | 52=20230609-17:24:32.299 | 11=T3UAT43IRV2HSV4M1000 | 41=T3UAT33IRV2HSV4M1000 | 54=1 | 38=100 | 55=BRK | 65=A | 60=20230609-17:24:32.299 | 10=002 | 

20230609-13:24:37.524 | OUT | 8=FIX.4.2 | 9=155 | 35=9 | 34=595 | 49=VCTU44 | 50=TESTEQT | 52=20230609-17:24:37.525 | 56=T3UAT | 128=TEST | 11=T3UAT43IRV2HSV4M1000 | 37=15 | 39=1 | 41=T3UAT33IRV2HSV4M1000 | 58=TLTC | 102=0 | 434=1 | 10=255 | 

20230609-13:26:17.229 | IN  | 8=FIX.4.2 | 9=00218 | 35=D | 49=T3UAT | 56=VCTU44 | 115=TEST | 34=602 | 57=TESTEQT | 52=20230609-17:26:17.210 | 1=TESTACCOUNT | 11=T3UAT53IRV2HSV4M1000 | 100=VELO | 15=USD | 21=1 | 47=A | 167=CS | 38=100 | 55=IBM | 54=1 | 18=R | 40=P | 59=0 | 44=150.0000 | 60=20230609-17:26:17.210 | 10=138 | 

20230609-13:27:14.343 | OUT | 8=FIX.4.2 | 9=288 | 35=8 | 34=601 | 49=VCTU44 | 50=TESTEQT | 52=20230609-17:27:14.355 | 56=T3UAT | 57=TESTEQT | 128=TEST | 1=TESTACCOUNT | 6=0 | 11=T3UAT53IRV2HSV4M1000 | 14=0 | 17=170002 | 18=R | 20=0 | 31=0 | 32=0 | 37=17 | 38=100 | 39=0 | 40=P | 44=150.000000 | 47=A | 54=1 | 55=IBM | 59=0 | 60=20230609-17:27:14.106 | 63=0 | 75=20230609 | 100=VELO | 150=0 | 151=100 | 10=178 | 

20230609-13:27:40.374 | OUT | 8=FIX.4.2 | 9=307 | 35=8 | 34=602 | 49=VCTU44 | 50=TESTEQT | 52=20230609-17:27:40.374 | 56=T3UAT | 57=TESTEQT | 128=TEST | 1=TESTACCOUNT | 6=110.000000 | 11=T3UAT53IRV2HSV4M1000 | 14=10 | 17=170003 | 18=R | 20=0 | 31=110.000000 | 32=10 | 37=17 | 38=100 | 39=1 | 40=P | 44=150.000000 | 47=A | 54=1 | 55=IBM | 59=0 | 60=20230609-17:27:40.052 | 63=0 | 75=20230609 | 100=VELO | 150=1 | 151=90 | 10=071 | 

20230609-13:27:47.574 | OUT | 8=FIX.4.2 | 9=307 | 35=8 | 34=603 | 49=VCTU44 | 50=TESTEQT | 52=20230609-17:27:47.576 | 56=T3UAT | 57=TESTEQT | 128=TEST | 1=TESTACCOUNT | 6=123.500000 | 11=T3UAT53IRV2HSV4M1000 | 14=40 | 17=170004 | 18=R | 20=0 | 31=128.000000 | 32=30 | 37=17 | 38=100 | 39=1 | 40=P | 44=150.000000 | 47=A | 54=1 | 55=IBM | 59=0 | 60=20230609-17:27:47.375 | 63=0 | 75=20230609 | 100=VELO | 150=1 | 151=60 | 10=119 | 

20230609-13:27:49.208 | OUT | 8=FIX.4.2 | 9=296 | 35=8 | 34=604 | 49=VCTU44 | 50=TESTEQT | 52=20230609-17:27:49.208 | 56=T3UAT | 57=TESTEQT | 128=TEST | 1=TESTACCOUNT | 6=123.500000 | 11=T3UAT53IRV2HSV4M1000 | 14=40 | 17=170005 | 18=R | 20=0 | 31=0 | 32=0 | 37=17 | 38=100 | 39=4 | 40=P | 44=150.000000 | 47=A | 54=1 | 55=IBM | 59=0 | 60=20230609-17:27:48.951 | 63=0 | 75=20230609 | 100=VELO | 150=4 | 151=0 | 10=095 | 

20230609-13:28:34.113 | IN  | 8=FIX.4.2 | 9=00201 | 35=D | 49=T3UAT | 56=VCTU44 | 115=TEST | 34=608 | 57=TESTEQT | 52=20230609-17:28:34.121 | 1=TESTACCOUNT | 11=T3UAT63IRV2HSV4M1000 | 100=VELO | 15=USD | 21=1 | 47=A | 167=CS | 38=100 | 55=IBM | 54=1 | 40=1 | 59=0 | 60=20230609-17:28:34.121 | 10=075 | 

20230609-13:28:51.296 | OUT | 8=FIX.4.2 | 9=269 | 35=8 | 34=607 | 49=VCTU44 | 50=TESTEQT | 52=20230609-17:28:51.296 | 56=T3UAT | 57=TESTEQT | 128=TEST | 1=TESTACCOUNT | 6=0 | 11=T3UAT63IRV2HSV4M1000 | 14=0 | 17=190002 | 20=0 | 31=0 | 32=0 | 37=19 | 38=100 | 39=8 | 40=1 | 47=A | 54=1 | 55=IBM | 59=0 | 60=20230609-17:28:51.059 | 63=0 | 75=20230609 | 100=VELO | 150=8 | 151=100 | 10=057 | 

20230609-13:29:34.340 | IN  | 8=FIX.4.2 | 9=00213 | 35=D | 49=T3UAT | 56=VCTU44 | 115=TEST | 34=611 | 57=TESTEQT | 52=20230609-17:29:34.326 | 1=TESTACCOUNT | 11=T3UAT73IRV2HSV4M1000 | 100=VELO | 15=USD | 21=1 | 47=A | 167=CS | 38=100 | 55=IBM | 54=1 | 40=2 | 59=0 | 44=150.0000 | 60=20230609-17:29:34.326 | 10=132 | 

20230609-13:29:42.581 | OUT | 8=FIX.4.2 | 9=283 | 35=8 | 34=609 | 49=VCTU44 | 50=TESTEQT | 52=20230609-17:29:42.582 | 56=T3UAT | 57=TESTEQT | 128=TEST | 1=TESTACCOUNT | 6=0 | 11=T3UAT73IRV2HSV4M1000 | 14=0 | 17=210002 | 20=0 | 31=0 | 32=0 | 37=21 | 38=100 | 39=8 | 40=2 | 44=150.000000 | 47=A | 54=1 | 55=IBM | 59=0 | 60=20230609-17:29:42.390 | 63=0 | 75=20230609 | 100=VELO | 150=8 | 151=100 | 10=179 | 

20230609-13:30:03.855 | IN  | 8=FIX.4.2 | 9=00201 | 35=D | 49=T3UAT | 56=VCTU44 | 115=TEST | 34=613 | 57=TESTEQT | 52=20230609-17:30:03.865 | 1=TESTACCOUNT | 11=T3UAT83IRV2HSV4M1000 | 100=VELO | 15=USD | 21=1 | 47=A | 167=CS | 38=100 | 55=IBM | 54=1 | 40=1 | 59=0 | 60=20230609-17:30:03.865 | 10=081 | 

20230609-13:30:15.853 | OUT | 8=FIX.4.2 | 9=269 | 35=8 | 34=611 | 49=VCTU44 | 50=TESTEQT | 52=20230609-17:30:15.857 | 56=T3UAT | 57=TESTEQT | 128=TEST | 1=TESTACCOUNT | 6=0 | 11=T3UAT83IRV2HSV4M1000 | 14=0 | 17=230002 | 20=0 | 31=0 | 32=0 | 37=23 | 38=100 | 39=0 | 40=1 | 47=A | 54=1 | 55=IBM | 59=0 | 60=20230609-17:30:15.729 | 63=0 | 75=20230609 | 100=VELO | 150=0 | 151=100 | 10=021 | 

20230609-13:31:12.846 | IN  | 8=FIX.4.2 | 9=00213 | 35=D | 49=T3UAT | 56=VCTU44 | 115=TEST | 34=616 | 57=TESTEQT | 52=20230609-17:31:12.867 | 1=TESTACCOUNT | 11=T3UAT93IRV2HSV4M1000 | 100=VELO | 15=USD | 21=1 | 47=A | 167=CS | 38=100 | 55=IBM | 54=1 | 40=2 | 59=0 | 44=150.0000 | 60=20230609-17:31:12.867 | 10=137 | 

20230609-13:31:46.759 | OUT | 8=FIX.4.2 | 9=283 | 35=8 | 34=615 | 49=VCTU44 | 50=TESTEQT | 52=20230609-17:31:46.759 | 56=T3UAT | 57=TESTEQT | 128=TEST | 1=TESTACCOUNT | 6=0 | 11=T3UAT93IRV2HSV4M1000 | 14=0 | 17=250002 | 20=0 | 31=0 | 32=0 | 37=25 | 38=100 | 39=0 | 40=2 | 44=150.000000 | 47=A | 54=1 | 55=IBM | 59=0 | 60=20230609-17:31:46.579 | 63=0 | 75=20230609 | 100=VELO | 150=0 | 151=100 | 10=179 | 

20230609-13:32:10.362 | IN  | 8=FIX.4.2 | 9=00201 | 35=D | 49=T3UAT | 56=VCTU44 | 115=TEST | 34=619 | 57=TESTEQT | 52=20230609-17:32:10.369 | 1=TESTACCOUNT | 11=T3UATA3IRV2HSV4M1000 | 100=VELO | 15=USD | 21=1 | 47=A | 167=CS | 38=100 | 55=IBM | 54=1 | 40=1 | 59=0 | 60=20230609-17:32:10.369 | 10=094 | 

20230609-13:32:27.555 | IN  | 8=FIX.4.2 | 9=00213 | 35=D | 49=T3UAT | 56=VCTU44 | 115=TEST | 34=621 | 57=TESTEQT | 52=20230609-17:32:27.548 | 1=TESTACCOUNT | 11=T3UATB3IRV2HSV4M1000 | 100=VELO | 15=USD | 21=1 | 47=A | 167=CS | 38=100 | 55=IBM | 54=1 | 40=2 | 59=0 | 44=150.0000 | 60=20230609-17:32:27.548 | 10=148 | 

20230609-13:32:42.957 | OUT | 8=FIX.4.2 | 9=267 | 35=8 | 34=617 | 49=VCTU44 | 50=TESTEQT | 52=20230609-17:32:42.957 | 56=T3UAT | 57=TESTEQT | 128=TEST | 1=TESTACCOUNT | 6=0 | 11=T3UATA3IRV2HSV4M1000 | 14=0 | 17=270002 | 20=0 | 31=0 | 32=0 | 37=27 | 38=100 | 39=4 | 40=1 | 47=A | 54=1 | 55=IBM | 59=0 | 60=20230609-17:32:42.738 | 63=0 | 75=20230609 | 100=VELO | 150=4 | 151=0 | 10=214 | 

20230609-13:32:51.055 | OUT | 8=FIX.4.2 | 9=269 | 35=8 | 34=618 | 49=VCTU44 | 50=TESTEQT | 52=20230609-17:32:51.055 | 56=T3UAT | 57=TESTEQT | 128=TEST | 1=TESTACCOUNT | 6=0 | 11=T3UATA3IRV2HSV4M1000 | 14=0 | 17=270003 | 20=0 | 31=0 | 32=0 | 37=27 | 38=100 | 39=0 | 40=1 | 47=A | 54=1 | 55=IBM | 59=0 | 60=20230609-17:32:50.804 | 63=0 | 75=20230609 | 100=VELO | 150=0 | 151=100 | 10=033 | 

20230609-13:32:52.432 | OUT | 8=FIX.4.2 | 9=283 | 35=8 | 34=619 | 49=VCTU44 | 50=TESTEQT | 52=20230609-17:32:52.444 | 56=T3UAT | 57=TESTEQT | 128=TEST | 1=TESTACCOUNT | 6=0 | 11=T3UATB3IRV2HSV4M1000 | 14=0 | 17=290002 | 20=0 | 31=0 | 32=0 | 37=29 | 38=100 | 39=0 | 40=2 | 44=150.000000 | 47=A | 54=1 | 55=IBM | 59=0 | 60=20230609-17:32:52.186 | 63=0 | 75=20230609 | 100=VELO | 150=0 | 151=100 | 10=181 | 

20230609-13:33:05.453 | IN  | 8=FIX.4.2 | 9=00168 | 35=F | 49=T3UAT | 56=VCTU44 | 115=TEST | 34=623 | 57=TESTEQT | 52=20230609-17:33:05.456 | 11=T3UATC3IRV2HSV4M1000 | 41=T3UATA3IRV2HSV4M1000 | 54=1 | 38=100 | 55=IBM | 60=20230609-17:33:05.456 | 10=029 | 

20230609-13:33:05.726 | OUT | 8=FIX.4.2 | 9=292 | 35=8 | 34=620 | 49=VCTU44 | 50=TESTEQT | 52=20230609-17:33:05.726 | 56=T3UAT | 57=TESTEQT | 128=TEST | 1=TESTACCOUNT | 6=0 | 11=T3UATC3IRV2HSV4M1000 | 14=0 | 17=270004 | 20=0 | 31=0 | 32=0 | 37=27 | 38=100 | 39=4 | 40=1 | 41=T3UATA3IRV2HSV4M1000 | 47=A | 54=1 | 55=IBM | 58=UR OUT | 59=0 | 60=20230609-17:33:05.507 | 63=0 | 75=20230609 | 150=4 | 151=0 | 10=009 | 

20230609-13:33:11.132 | IN  | 8=FIX.4.2 | 9=00168 | 35=F | 49=T3UAT | 56=VCTU44 | 115=TEST | 34=624 | 57=TESTEQT | 52=20230609-17:33:11.112 | 11=T3UATD3IRV2HSV4M1000 | 41=T3UATB3IRV2HSV4M1000 | 54=1 | 38=100 | 55=IBM | 60=20230609-17:33:11.112 | 10=004 | 

20230609-13:33:25.838 | OUT | 8=FIX.4.2 | 9=306 | 35=8 | 34=621 | 49=VCTU44 | 50=TESTEQT | 52=20230609-17:33:25.839 | 56=T3UAT | 57=TESTEQT | 128=TEST | 1=TESTACCOUNT | 6=0 | 11=T3UATD3IRV2HSV4M1000 | 14=0 | 17=290005 | 20=0 | 31=0 | 32=0 | 37=29 | 38=100 | 39=4 | 40=2 | 41=T3UATB3IRV2HSV4M1000 | 44=150.000000 | 47=A | 54=1 | 55=IBM | 58=UR OUT | 59=0 | 60=20230609-17:33:25.668 | 63=0 | 75=20230609 | 150=4 | 151=0 | 10=169 | 

20230609-13:33:46.808 | IN  | 8=FIX.4.2 | 9=00168 | 35=F | 49=T3UAT | 56=VCTU44 | 115=TEST | 34=626 | 57=TESTEQT | 52=20230609-17:33:46.805 | 11=T3UATE3IRV2HSV4M1000 | 41=T3UAT93IRV2HSV4M1000 | 54=1 | 38=100 | 55=IBM | 60=20230609-17:33:46.805 | 10=032 | 

20230609-13:33:51.137 | OUT | 8=FIX.4.2 | 9=306 | 35=8 | 34=622 | 49=VCTU44 | 50=TESTEQT | 52=20230609-17:33:51.137 | 56=T3UAT | 57=TESTEQT | 128=TEST | 1=TESTACCOUNT | 6=0 | 11=T3UATE3IRV2HSV4M1000 | 14=0 | 17=250005 | 20=0 | 31=0 | 32=0 | 37=25 | 38=100 | 39=4 | 40=2 | 41=T3UAT93IRV2HSV4M1000 | 44=150.000000 | 47=A | 54=1 | 55=IBM | 58=UR OUT | 59=0 | 60=20230609-17:33:50.892 | 63=0 | 75=20230609 | 150=4 | 151=0 | 10=141 | 

20230609-13:34:15.148 | IN  | 8=FIX.4.2 | 9=00213 | 35=D | 49=T3UAT | 56=VCTU44 | 115=TEST | 34=628 | 57=TESTEQT | 52=20230609-17:34:15.150 | 1=TESTACCOUNT | 11=T3UATF3IRV2HSV4M1000 | 100=VELO | 15=USD | 21=1 | 47=A | 167=CS | 38=100 | 55=IBM | 54=1 | 40=2 | 59=0 | 44=150.0000 | 60=20230609-17:34:15.150 | 10=135 | 

20230609-13:34:29.685 | OUT | 8=FIX.4.2 | 9=283 | 35=8 | 34=624 | 49=VCTU44 | 50=TESTEQT | 52=20230609-17:34:29.685 | 56=T3UAT | 57=TESTEQT | 128=TEST | 1=TESTACCOUNT | 6=0 | 11=T3UATF3IRV2HSV4M1000 | 14=0 | 17=310002 | 20=0 | 31=0 | 32=0 | 37=31 | 38=100 | 39=0 | 40=2 | 44=150.000000 | 47=A | 54=1 | 55=IBM | 59=0 | 60=20230609-17:34:29.441 | 63=0 | 75=20230609 | 100=VELO | 150=0 | 151=100 | 10=180 | 

20230609-13:34:38.940 | OUT | 8=FIX.4.2 | 9=302 | 35=8 | 34=625 | 49=VCTU44 | 50=TESTEQT | 52=20230609-17:34:38.940 | 56=T3UAT | 57=TESTEQT | 128=TEST | 1=TESTACCOUNT | 6=120.000000 | 11=T3UATF3IRV2HSV4M1000 | 14=10 | 17=310003 | 20=0 | 31=120.000000 | 32=10 | 37=31 | 38=100 | 39=1 | 40=2 | 44=150.000000 | 47=A | 54=1 | 55=IBM | 59=0 | 60=20230609-17:34:38.610 | 63=0 | 75=20230609 | 100=VELO | 150=1 | 151=90 | 10=068 | 

20230609-13:34:46.881 | OUT | 8=FIX.4.2 | 9=302 | 35=8 | 34=626 | 49=VCTU44 | 50=TESTEQT | 52=20230609-17:34:46.861 | 56=T3UAT | 57=TESTEQT | 128=TEST | 1=TESTACCOUNT | 6=126.666667 | 11=T3UATF3IRV2HSV4M1000 | 14=30 | 17=310004 | 20=0 | 31=130.000000 | 32=20 | 37=31 | 38=100 | 39=1 | 40=2 | 44=150.000000 | 47=A | 54=1 | 55=IBM | 59=0 | 60=20230609-17:34:46.671 | 63=0 | 75=20230609 | 100=VELO | 150=1 | 151=70 | 10=122 | 

20230609-13:34:52.764 | OUT | 8=FIX.4.2 | 9=302 | 35=8 | 34=627 | 49=VCTU44 | 50=TESTEQT | 52=20230609-17:34:52.764 | 56=T3UAT | 57=TESTEQT | 128=TEST | 1=TESTACCOUNT | 6=122.857143 | 11=T3UATF3IRV2HSV4M1000 | 14=70 | 17=310005 | 20=0 | 31=120.000000 | 32=40 | 37=31 | 38=100 | 39=1 | 40=2 | 44=150.000000 | 47=A | 54=1 | 55=IBM | 59=0 | 60=20230609-17:34:52.442 | 63=0 | 75=20230609 | 100=VELO | 150=1 | 151=30 | 10=104 | 

20230609-13:34:59.039 | OUT | 8=FIX.4.2 | 9=302 | 35=8 | 34=628 | 49=VCTU44 | 50=TESTEQT | 52=20230609-17:34:59.041 | 56=T3UAT | 57=TESTEQT | 128=TEST | 1=TESTACCOUNT | 6=123.333333 | 11=T3UATF3IRV2HSV4M1000 | 14=60 | 17=310006 | 19=310003 | 20=1 | 31=0 | 32=0 | 37=31 | 38=100 | 39=1 | 40=2 | 44=150.000000 | 47=A | 54=1 | 55=IBM | 59=0 | 60=20230609-17:34:58.851 | 63=0 | 75=20230609 | 100=VELO | 150=1 | 151=40 | 10=081 | 

20230609-13:35:08.821 | OUT | 8=FIX.4.2 | 9=312 | 35=8 | 34=629 | 49=VCTU44 | 50=TESTEQT | 52=20230609-17:35:08.831 | 56=T3UAT | 57=TESTEQT | 128=TEST | 1=TESTACCOUNT | 6=125.000000 | 11=T3UATF3IRV2HSV4M1000 | 14=80 | 17=310007 | 19=310004 | 20=2 | 31=130.000000 | 32=40 | 37=31 | 38=100 | 39=1 | 40=2 | 44=150.000000 | 47=A | 54=1 | 55=IBM | 59=0 | 60=20230609-17:35:08.612 | 63=0 | 75=20230609 | 100=VELO | 150=1 | 151=20 | 10=037 | 

20230609-13:35:20.076 | OUT | 8=FIX.4.2 | 9=312 | 35=8 | 34=630 | 49=VCTU44 | 50=TESTEQT | 52=20230609-17:35:20.076 | 56=T3UAT | 57=TESTEQT | 128=TEST | 1=TESTACCOUNT | 6=130.000000 | 11=T3UATF3IRV2HSV4M1000 | 14=80 | 17=310008 | 19=310005 | 20=2 | 31=130.000000 | 32=40 | 37=31 | 38=100 | 39=1 | 40=2 | 44=150.000000 | 47=A | 54=1 | 55=IBM | 59=0 | 60=20230609-17:35:19.931 | 63=0 | 75=20230609 | 100=VELO | 150=1 | 151=20 | 10=028 | 

20230609-13:35:39.888 | OUT | 8=FIX.4.2 | 9=302 | 35=8 | 34=631 | 49=VCTU44 | 50=TESTEQT | 52=20230609-17:35:39.891 | 56=T3UAT | 57=TESTEQT | 128=TEST | 1=TESTACCOUNT | 6=124.000000 | 11=T3UATF3IRV2HSV4M1000 | 14=100 | 17=310009 | 20=0 | 31=100.000000 | 32=20 | 37=31 | 38=100 | 39=2 | 40=2 | 44=150.000000 | 47=A | 54=1 | 55=IBM | 59=0 | 60=20230609-17:35:39.740 | 63=0 | 75=20230609 | 100=VELO | 150=2 | 151=0 | 10=080 | 

20230609-13:37:14.482 | IN  | 8=FIX.4.2 | 9=00213 | 35=D | 49=T3UAT | 56=VCTU44 | 115=TEST | 34=635 | 57=TESTEQT | 52=20230609-17:37:14.432 | 1=TESTACCOUNT | 11=T3UATG3IRV2HSV4M1000 | 100=VELO | 15=USD | 21=1 | 47=A | 167=CS | 38=100 | 55=IBM | 54=2 | 40=2 | 59=0 | 44=150.0000 | 60=20230609-17:37:14.432 | 10=145 | 

20230609-13:37:25.944 | OUT | 8=FIX.4.2 | 9=283 | 35=8 | 34=635 | 49=VCTU44 | 50=TESTEQT | 52=20230609-17:37:25.944 | 56=T3UAT | 57=TESTEQT | 128=TEST | 1=TESTACCOUNT | 6=0 | 11=T3UATG3IRV2HSV4M1000 | 14=0 | 17=330002 | 20=0 | 31=0 | 32=0 | 37=33 | 38=100 | 39=0 | 40=2 | 44=150.000000 | 47=A | 54=2 | 55=IBM | 59=0 | 60=20230609-17:37:25.674 | 63=0 | 75=20230609 | 100=VELO | 150=0 | 151=100 | 10=192 | 

20230609-13:37:45.610 | OUT | 8=FIX.4.2 | 9=302 | 35=8 | 34=636 | 49=VCTU44 | 50=TESTEQT | 52=20230609-17:37:45.613 | 56=T3UAT | 57=TESTEQT | 128=TEST | 1=TESTACCOUNT | 6=120.000000 | 11=T3UATG3IRV2HSV4M1000 | 14=10 | 17=330003 | 20=0 | 31=120.000000 | 32=10 | 37=33 | 38=100 | 39=1 | 40=2 | 44=150.000000 | 47=A | 54=2 | 55=IBM | 59=0 | 60=20230609-17:37:45.445 | 63=0 | 75=20230609 | 100=VELO | 150=1 | 151=90 | 10=081 | 

20230609-13:37:51.409 | OUT | 8=FIX.4.2 | 9=302 | 35=8 | 34=637 | 49=VCTU44 | 50=TESTEQT | 52=20230609-17:37:51.409 | 56=T3UAT | 57=TESTEQT | 128=TEST | 1=TESTACCOUNT | 6=126.666667 | 11=T3UATG3IRV2HSV4M1000 | 14=30 | 17=330004 | 20=0 | 31=130.000000 | 32=20 | 37=33 | 38=100 | 39=1 | 40=2 | 44=150.000000 | 47=A | 54=2 | 55=IBM | 59=0 | 60=20230609-17:37:51.173 | 63=0 | 75=20230609 | 100=VELO | 150=1 | 151=70 | 10=123 | 

20230609-13:37:53.379 | OUT | 8=FIX.4.2 | 9=291 | 35=8 | 34=638 | 49=VCTU44 | 50=TESTEQT | 52=20230609-17:37:53.363 | 56=T3UAT | 57=TESTEQT | 128=TEST | 1=TESTACCOUNT | 6=126.666667 | 11=T3UATG3IRV2HSV4M1000 | 14=30 | 17=330005 | 20=0 | 31=0 | 32=0 | 37=33 | 38=100 | 39=3 | 40=2 | 44=150.000000 | 47=A | 54=2 | 55=IBM | 59=0 | 60=20230609-17:37:53.140 | 63=0 | 75=20230609 | 100=VELO | 150=3 | 151=0 | 10=106 | 
